{
  "contractName": "Shop",
  "abi": [
    {
      "inputs": [],
      "name": "order_count",
      "outputs": [
        {
          "internalType": "uint256",
          "name": "",
          "type": "uint256"
        }
      ],
      "stateMutability": "view",
      "type": "function",
      "constant": true
    },
    {
      "inputs": [
        {
          "internalType": "uint256",
          "name": "",
          "type": "uint256"
        }
      ],
      "name": "orders",
      "outputs": [
        {
          "internalType": "uint256",
          "name": "order_id",
          "type": "uint256"
        },
        {
          "internalType": "uint256",
          "name": "item_count",
          "type": "uint256"
        },
        {
          "internalType": "address",
          "name": "account",
          "type": "address"
        },
        {
          "internalType": "uint256",
          "name": "total",
          "type": "uint256"
        }
      ],
      "stateMutability": "view",
      "type": "function",
      "constant": true
    },
    {
      "inputs": [
        {
          "internalType": "uint256[]",
          "name": "ids",
          "type": "uint256[]"
        },
        {
          "internalType": "uint256",
          "name": "total",
          "type": "uint256"
        }
      ],
      "name": "createOrder",
      "outputs": [],
      "stateMutability": "nonpayable",
      "type": "function"
    },
    {
      "inputs": [
        {
          "internalType": "uint256",
          "name": "id",
          "type": "uint256"
        }
      ],
      "name": "getOrder",
      "outputs": [
        {
          "internalType": "uint256",
          "name": "order_id",
          "type": "uint256"
        },
        {
          "internalType": "uint256",
          "name": "item_count",
          "type": "uint256"
        },
        {
          "internalType": "address",
          "name": "account",
          "type": "address"
        },
        {
          "internalType": "uint256",
          "name": "total",
          "type": "uint256"
        }
      ],
      "stateMutability": "nonpayable",
      "type": "function"
    },
    {
      "inputs": [
        {
          "internalType": "uint256",
          "name": "order_id",
          "type": "uint256"
        },
        {
          "internalType": "uint256",
          "name": "item_index",
          "type": "uint256"
        }
      ],
      "name": "getItem",
      "outputs": [
        {
          "internalType": "uint256",
          "name": "item_id",
          "type": "uint256"
        }
      ],
      "stateMutability": "nonpayable",
      "type": "function"
    }
  ],
  "bytecode": "0x60806040526000805534801561001457600080fd5b50610673806100246000396000f3fe608060405234801561001057600080fd5b50600436106100575760003560e01c80632a1f11991461005c5780633c00a96a1461007a57806359cc334a14610096578063a85c38ef146100c6578063d09ef241146100f9575b600080fd5b61006461012c565b604051610071919061052b565b60405180910390f35b610094600480360381019061008f9190610454565b610132565b005b6100b060048036038101906100ab91906104d1565b610296565b6040516100bd919061052b565b60405180910390f35b6100e060048036038101906100db91906104a8565b6102c8565b6040516100f09493929190610546565b60405180910390f35b610113600480360381019061010e91906104a8565b610318565b6040516101239493929190610546565b60405180910390f35b60005481565b600073ffffffffffffffffffffffffffffffffffffffff163373ffffffffffffffffffffffffffffffffffffffff16141561016c57600080fd5b600082511161017a57600080fd5b600054600160008054815260200190815260200160002060000181905550815160016000805481526020019081526020016000206002018190555033600160008054815260200190815260200160002060030160006101000a81548173ffffffffffffffffffffffffffffffffffffffff021916908373ffffffffffffffffffffffffffffffffffffffff1602179055508060016000805481526020019081526020016000206004018190555060005b82518110156102805782818151811061023f57fe5b60200260200101516001600080548152602001908152602001600020600101600083815260200190815260200160002081905550808060010191505061022a565b5060008081548092919060010191905055505050565b600060016000848152602001908152602001600020600101600083815260200190815260200160002054905092915050565b60016020528060005260406000206000915090508060000154908060020154908060030160009054906101000a900473ffffffffffffffffffffffffffffffffffffffff16908060040154905084565b600080600080600160008681526020019081526020016000206000015460016000878152602001908152602001600020600201546001600088815260200190815260200160002060030160009054906101000a900473ffffffffffffffffffffffffffffffffffffffff16600160008981526020019081526020016000206004015493509350935093509193509193565b60006103bc6103b7846105bc565b61058b565b905080838252602082019050828560208602820111156103db57600080fd5b60005b8581101561040b57816103f1888261043f565b8452602084019350602083019250506001810190506103de565b5050509392505050565b600082601f83011261042657600080fd5b81356104368482602086016103a9565b91505092915050565b60008135905061044e81610626565b92915050565b6000806040838503121561046757600080fd5b600083013567ffffffffffffffff81111561048157600080fd5b61048d85828601610415565b925050602061049e8582860161043f565b9150509250929050565b6000602082840312156104ba57600080fd5b60006104c88482850161043f565b91505092915050565b600080604083850312156104e457600080fd5b60006104f28582860161043f565b92505060206105038582860161043f565b9150509250929050565b610516816105e8565b82525050565b6105258161061a565b82525050565b6000602082019050610540600083018461051c565b92915050565b600060808201905061055b600083018761051c565b610568602083018661051c565b610575604083018561050d565b610582606083018461051c565b95945050505050565b6000604051905081810181811067ffffffffffffffff821117156105b2576105b1610624565b5b8060405250919050565b600067ffffffffffffffff8211156105d7576105d6610624565b5b602082029050602081019050919050565b60006105f3826105fa565b9050919050565b600073ffffffffffffffffffffffffffffffffffffffff82169050919050565b6000819050919050565bfe5b61062f8161061a565b811461063a57600080fd5b5056fea2646970667358221220ebb684e91472430b85ddf1371e32044f8e7986222d25b6c0df46aa7e74e94ff964736f6c63430007060033",
  "immutableReferences": {},
  "source": "pragma experimental ABIEncoderV2;\r\n\r\ncontract Shop {\r\n  uint public order_count = 0;\r\n  mapping(uint => Order) public orders;\r\n\r\n  struct Order{\r\n    uint order_id;\r\n    mapping(uint => uint) items;\r\n    uint item_count;\r\n    address account;\r\n    uint total;\r\n  }\r\n\r\n  function createOrder(uint[] memory ids, uint total) public {\r\n    require(msg.sender!=address(0));\r\n    require(ids.length > 0);\r\n\r\n    orders[order_count].order_id = order_count;\r\n    orders[order_count].item_count = ids.length;\r\n    orders[order_count].account = msg.sender;\r\n    orders[order_count].total = total;\r\n    for (uint i = 0; i < ids.length; i++){\r\n      orders[order_count].items[i] = ids[i];\r\n    }\r\n    order_count ++;\r\n  }\r\n\r\n  function getOrder(uint id) public returns (uint order_id, uint item_count, address account, uint total){\r\n    return (orders[id].order_id, orders[id].item_count, orders[id].account, orders[id].total);\r\n  }\r\n\r\n  function getItem(uint order_id, uint item_index) public returns (uint item_id){\r\n    return (orders[order_id].items[item_index]);\r\n  }\r\n}\r\n",
  "sourcePath": "C:/Users/Jacky/Desktop/ethershop/contracts/Shop.sol",
  "compiler": {
    "name": "solc",
    "version": "0.7.6+commit.7338295f.Emscripten.clang"
  },
  "schemaVersion": "3.3.3",
  "updatedAt": "2020-12-29T05:49:42.355Z",
  "networkType": "ethereum",
  "devdoc": {
    "kind": "dev",
    "methods": {},
    "version": 1
  },
  "userdoc": {
    "kind": "user",
    "methods": {},
    "version": 1
  }
}