{
  "contractName": "Shop",
  "abi": [
    {
      "anonymous": false,
      "inputs": [
        {
          "indexed": false,
          "internalType": "uint256",
          "name": "order_id",
          "type": "uint256"
        },
        {
          "indexed": false,
          "internalType": "uint256",
          "name": "item_count",
          "type": "uint256"
        },
        {
          "indexed": false,
          "internalType": "uint256",
          "name": "total",
          "type": "uint256"
        }
      ],
      "name": "orderCreated",
      "type": "event"
    },
    {
      "inputs": [],
      "name": "order_count",
      "outputs": [
        {
          "internalType": "uint256",
          "name": "",
          "type": "uint256"
        }
      ],
      "stateMutability": "view",
      "type": "function",
      "constant": true
    },
    {
      "inputs": [
        {
          "internalType": "uint256",
          "name": "",
          "type": "uint256"
        }
      ],
      "name": "orders",
      "outputs": [
        {
          "internalType": "uint256",
          "name": "order_id",
          "type": "uint256"
        },
        {
          "internalType": "uint256",
          "name": "item_count",
          "type": "uint256"
        },
        {
          "internalType": "address",
          "name": "account",
          "type": "address"
        },
        {
          "internalType": "uint256",
          "name": "total",
          "type": "uint256"
        }
      ],
      "stateMutability": "view",
      "type": "function",
      "constant": true
    },
    {
      "inputs": [
        {
          "internalType": "uint256[]",
          "name": "ids",
          "type": "uint256[]"
        },
        {
          "internalType": "uint256",
          "name": "total",
          "type": "uint256"
        }
      ],
      "name": "createOrder",
      "outputs": [],
      "stateMutability": "nonpayable",
      "type": "function"
    },
    {
      "inputs": [
        {
          "internalType": "uint256",
          "name": "id",
          "type": "uint256"
        }
      ],
      "name": "getOrder",
      "outputs": [
        {
          "internalType": "uint256",
          "name": "order_id",
          "type": "uint256"
        },
        {
          "internalType": "uint256",
          "name": "item_count",
          "type": "uint256"
        },
        {
          "internalType": "address",
          "name": "account",
          "type": "address"
        },
        {
          "internalType": "uint256",
          "name": "total",
          "type": "uint256"
        }
      ],
      "stateMutability": "nonpayable",
      "type": "function"
    },
    {
      "inputs": [
        {
          "internalType": "uint256",
          "name": "order_id",
          "type": "uint256"
        },
        {
          "internalType": "uint256",
          "name": "item_index",
          "type": "uint256"
        }
      ],
      "name": "getItem",
      "outputs": [
        {
          "internalType": "uint256",
          "name": "item_id",
          "type": "uint256"
        }
      ],
      "stateMutability": "nonpayable",
      "type": "function"
    }
  ],
  "bytecode": "0x60806040526000805534801561001457600080fd5b506106e8806100246000396000f3fe608060405234801561001057600080fd5b50600436106100575760003560e01c80632a1f11991461005c5780633c00a96a1461007a57806359cc334a14610096578063a85c38ef146100c6578063d09ef241146100f9575b600080fd5b61006461012c565b6040516100719190610569565b60405180910390f35b610094600480360381019061008f9190610492565b610132565b005b6100b060048036038101906100ab919061050f565b6102d4565b6040516100bd9190610569565b60405180910390f35b6100e060048036038101906100db91906104e6565b610306565b6040516100f09493929190610584565b60405180910390f35b610113600480360381019061010e91906104e6565b610356565b6040516101239493929190610584565b60405180910390f35b60005481565b600073ffffffffffffffffffffffffffffffffffffffff163373ffffffffffffffffffffffffffffffffffffffff16141561016c57600080fd5b600082511161017a57600080fd5b600054600160008054815260200190815260200160002060000181905550815160016000805481526020019081526020016000206002018190555033600160008054815260200190815260200160002060030160006101000a81548173ffffffffffffffffffffffffffffffffffffffff021916908373ffffffffffffffffffffffffffffffffffffffff1602179055508060016000805481526020019081526020016000206004018190555060005b82518110156102805782818151811061023f57fe5b60200260200101516001600080548152602001908152602001600020600101600083815260200190815260200160002081905550808060010191505061022a565b5060008081548092919060010191905055507ff025e294473aed6acc1f23cc7695eda4a245ad2de27dae6a818137a6f15e572c6000548351836040516102c8939291906105c9565b60405180910390a15050565b600060016000848152602001908152602001600020600101600083815260200190815260200160002054905092915050565b60016020528060005260406000206000915090508060000154908060020154908060030160009054906101000a900473ffffffffffffffffffffffffffffffffffffffff16908060040154905084565b600080600080600160008681526020019081526020016000206000015460016000878152602001908152602001600020600201546001600088815260200190815260200160002060030160009054906101000a900473ffffffffffffffffffffffffffffffffffffffff16600160008981526020019081526020016000206004015493509350935093509193509193565b60006103fa6103f584610631565b610600565b9050808382526020820190508285602086028201111561041957600080fd5b60005b85811015610449578161042f888261047d565b84526020840193506020830192505060018101905061041c565b5050509392505050565b600082601f83011261046457600080fd5b81356104748482602086016103e7565b91505092915050565b60008135905061048c8161069b565b92915050565b600080604083850312156104a557600080fd5b600083013567ffffffffffffffff8111156104bf57600080fd5b6104cb85828601610453565b92505060206104dc8582860161047d565b9150509250929050565b6000602082840312156104f857600080fd5b60006105068482850161047d565b91505092915050565b6000806040838503121561052257600080fd5b60006105308582860161047d565b92505060206105418582860161047d565b9150509250929050565b6105548161065d565b82525050565b6105638161068f565b82525050565b600060208201905061057e600083018461055a565b92915050565b6000608082019050610599600083018761055a565b6105a6602083018661055a565b6105b3604083018561054b565b6105c0606083018461055a565b95945050505050565b60006060820190506105de600083018661055a565b6105eb602083018561055a565b6105f8604083018461055a565b949350505050565b6000604051905081810181811067ffffffffffffffff8211171561062757610626610699565b5b8060405250919050565b600067ffffffffffffffff82111561064c5761064b610699565b5b602082029050602081019050919050565b60006106688261066f565b9050919050565b600073ffffffffffffffffffffffffffffffffffffffff82169050919050565b6000819050919050565bfe5b6106a48161068f565b81146106af57600080fd5b5056fea2646970667358221220e818644ec902c897c747753f7222093265e2ff12fb3040497dfa6971ca4ae2df64736f6c63430007060033",
  "immutableReferences": {},
  "source": "// SPDX-License-Identifier: MIT\r\npragma experimental ABIEncoderV2;\r\n\r\ncontract Shop {\r\n    uint256 public order_count = 0;\r\n    mapping(uint256 => Order) public orders;\r\n\r\n    struct Order {\r\n        uint256 order_id;\r\n        mapping(uint256 => uint256) items;\r\n        uint256 item_count;\r\n        address account;\r\n        uint256 total;\r\n    }\r\n\r\n    function createOrder(uint256[] memory ids, uint256 total) public {\r\n        require(msg.sender != address(0));\r\n        require(ids.length > 0);\r\n\r\n        orders[order_count].order_id = order_count;\r\n        orders[order_count].item_count = ids.length;\r\n        orders[order_count].account = msg.sender;\r\n        orders[order_count].total = total;\r\n        for (uint256 i = 0; i < ids.length; i++) {\r\n            orders[order_count].items[i] = ids[i];\r\n        }\r\n        order_count++;\r\n        emit orderCreated(order_count, ids.length, total);\r\n    }\r\n\r\n    function getOrder(uint256 id)\r\n        public\r\n        returns (\r\n            uint256 order_id,\r\n            uint256 item_count,\r\n            address account,\r\n            uint256 total\r\n        )\r\n    {\r\n        return (\r\n            orders[id].order_id,\r\n            orders[id].item_count,\r\n            orders[id].account,\r\n            orders[id].total\r\n        );\r\n    }\r\n\r\n    function getItem(uint256 order_id, uint256 item_index)\r\n        public\r\n        returns (uint256 item_id)\r\n    {\r\n        return (orders[order_id].items[item_index]);\r\n    }\r\n\r\n    event orderCreated(uint256 order_id, uint256 item_count, uint256 total);\r\n}\r\n",
  "sourcePath": "W:\\Current Projects\\ethershop\\contracts\\Shop.sol",
  "compiler": {
    "name": "solc",
    "version": "0.7.6+commit.7338295f.Emscripten.clang"
  },
  "schemaVersion": "3.4.3",
  "updatedAt": "2021-08-16T07:01:57.551Z",
  "networkType": "ethereum",
  "devdoc": {
    "kind": "dev",
    "methods": {},
    "version": 1
  },
  "userdoc": {
    "kind": "user",
    "methods": {},
    "version": 1
  }
}