{
  "contractName": "Shop",
  "abi": [
    {
      "inputs": [],
      "name": "order_count",
      "outputs": [
        {
          "internalType": "uint256",
          "name": "",
          "type": "uint256"
        }
      ],
      "stateMutability": "view",
      "type": "function",
      "constant": true
    },
    {
      "inputs": [
        {
          "internalType": "uint256",
          "name": "",
          "type": "uint256"
        }
      ],
      "name": "orders",
      "outputs": [
        {
          "internalType": "uint256",
          "name": "order_id",
          "type": "uint256"
        },
        {
          "internalType": "uint256",
          "name": "item_count",
          "type": "uint256"
        },
        {
          "internalType": "address",
          "name": "account",
          "type": "address"
        }
      ],
      "stateMutability": "view",
      "type": "function",
      "constant": true
    },
    {
      "inputs": [
        {
          "internalType": "uint256[]",
          "name": "ids",
          "type": "uint256[]"
        }
      ],
      "name": "createOrder",
      "outputs": [],
      "stateMutability": "nonpayable",
      "type": "function"
    },
    {
      "inputs": [
        {
          "internalType": "uint256",
          "name": "order_id",
          "type": "uint256"
        }
      ],
      "name": "getOrder",
      "outputs": [
        {
          "internalType": "uint256",
          "name": "item_count",
          "type": "uint256"
        },
        {
          "internalType": "address",
          "name": "account",
          "type": "address"
        }
      ],
      "stateMutability": "nonpayable",
      "type": "function"
    },
    {
      "inputs": [
        {
          "internalType": "uint256",
          "name": "order_id",
          "type": "uint256"
        },
        {
          "internalType": "uint256",
          "name": "item_index",
          "type": "uint256"
        }
      ],
      "name": "getItem",
      "outputs": [
        {
          "internalType": "uint256",
          "name": "item_id",
          "type": "uint256"
        }
      ],
      "stateMutability": "nonpayable",
      "type": "function"
    }
  ],
  "bytecode": "0x60806040526000805534801561001457600080fd5b5061061e806100246000396000f3fe608060405234801561001057600080fd5b50600436106100575760003560e01c80632a1f11991461005c57806359cc334a1461007a578063921d7ce1146100aa578063a85c38ef146100c6578063d09ef241146100f8575b600080fd5b610064610129565b60405161007191906104bb565b60405180910390f35b610094600480360381019061008f9190610461565b61012f565b6040516100a191906104bb565b60405180910390f35b6100c460048036038101906100bf91906103f7565b610161565b005b6100e060048036038101906100db9190610438565b6102a8565b6040516100ef939291906104ff565b60405180910390f35b610112600480360381019061010d9190610438565b6102f2565b6040516101209291906104d6565b60405180910390f35b60005481565b600060016000848152602001908152602001600020600101600083815260200190815260200160002054905092915050565b600073ffffffffffffffffffffffffffffffffffffffff163373ffffffffffffffffffffffffffffffffffffffff16141561019b57600080fd5b60008151116101a957600080fd5b600054600160008054815260200190815260200160002060000181905550805160016000805481526020019081526020016000206002018190555033600160008054815260200190815260200160002060030160006101000a81548173ffffffffffffffffffffffffffffffffffffffff021916908373ffffffffffffffffffffffffffffffffffffffff16021790555060005b81518110156102935781818151811061025257fe5b60200260200101516001600080548152602001908152602001600020600101600083815260200190815260200160002081905550808060010191505061023d565b50600080815480929190600101919050555050565b60016020528060005260406000206000915090508060000154908060020154908060030160009054906101000a900473ffffffffffffffffffffffffffffffffffffffff16905083565b60008060016000848152602001908152602001600020600201546001600085815260200190815260200160002060030160009054906101000a900473ffffffffffffffffffffffffffffffffffffffff1691509150915091565b600061035f61035a84610567565b610536565b9050808382526020820190508285602086028201111561037e57600080fd5b60005b858110156103ae578161039488826103e2565b845260208401935060208301925050600181019050610381565b5050509392505050565b600082601f8301126103c957600080fd5b81356103d984826020860161034c565b91505092915050565b6000813590506103f1816105d1565b92915050565b60006020828403121561040957600080fd5b600082013567ffffffffffffffff81111561042357600080fd5b61042f848285016103b8565b91505092915050565b60006020828403121561044a57600080fd5b6000610458848285016103e2565b91505092915050565b6000806040838503121561047457600080fd5b6000610482858286016103e2565b9250506020610493858286016103e2565b9150509250929050565b6104a681610593565b82525050565b6104b5816105c5565b82525050565b60006020820190506104d060008301846104ac565b92915050565b60006040820190506104eb60008301856104ac565b6104f8602083018461049d565b9392505050565b600060608201905061051460008301866104ac565b61052160208301856104ac565b61052e604083018461049d565b949350505050565b6000604051905081810181811067ffffffffffffffff8211171561055d5761055c6105cf565b5b8060405250919050565b600067ffffffffffffffff821115610582576105816105cf565b5b602082029050602081019050919050565b600061059e826105a5565b9050919050565b600073ffffffffffffffffffffffffffffffffffffffff82169050919050565b6000819050919050565bfe5b6105da816105c5565b81146105e557600080fd5b5056fea264697066735822122009fdd40cd3c54556a39296cc53eefb69d69f362f396d89bf4035dea1a4c7e50164736f6c63430007060033",
  "immutableReferences": {},
  "source": "pragma experimental ABIEncoderV2;\r\n\r\ncontract Shop {\r\n  uint public order_count = 0;\r\n  mapping(uint => Order) public orders;\r\n\r\n  struct Order{\r\n    uint order_id;\r\n    mapping(uint => uint) items;\r\n    uint item_count;\r\n    address account;\r\n  }\r\n\r\n  function createOrder(uint[] memory ids) public {\r\n    require(msg.sender!=address(0));\r\n    require(ids.length > 0);\r\n\r\n    orders[order_count].order_id = order_count;\r\n    orders[order_count].item_count = ids.length;\r\n    orders[order_count].account = msg.sender;\r\n    for (uint i = 0; i < ids.length; i++){\r\n      orders[order_count].items[i] = ids[i];\r\n    }\r\n    order_count ++;\r\n  }\r\n\r\n  function getOrder(uint order_id) public returns (uint item_count, address account){\r\n    return (orders[order_id].item_count, orders[order_id].account);\r\n  }\r\n\r\n  function getItem(uint order_id, uint item_index) public returns (uint item_id){\r\n    return (orders[order_id].items[item_index]);\r\n  }\r\n}\r\n",
  "sourcePath": "C:/Users/Jacky/Desktop/ethershop/contracts/Shop.sol",
  "compiler": {
    "name": "solc",
    "version": "0.7.6+commit.7338295f.Emscripten.clang"
  },
  "schemaVersion": "3.3.3",
  "updatedAt": "2020-12-29T03:58:30.217Z",
  "networkType": "ethereum",
  "devdoc": {
    "kind": "dev",
    "methods": {},
    "version": 1
  },
  "userdoc": {
    "kind": "user",
    "methods": {},
    "version": 1
  }
}